{
  "_format": "hh-sol-artifact-1",
  "contractName": "Lottery",
  "sourceName": "contracts/Lottery.sol",
  "abi": [
    {
      "inputs": [
        {
          "internalType": "string",
          "name": "tokenName",
          "type": "string"
        },
        {
          "internalType": "string",
          "name": "tokenSymbol",
          "type": "string"
        },
        {
          "internalType": "uint256",
          "name": "_purchaseRatio",
          "type": "uint256"
        },
        {
          "internalType": "uint256",
          "name": "_betPrice",
          "type": "uint256"
        },
        {
          "internalType": "uint256",
          "name": "_betFee",
          "type": "uint256"
        }
      ],
      "stateMutability": "nonpayable",
      "type": "constructor"
    },
    {
      "anonymous": false,
      "inputs": [
        {
          "indexed": true,
          "internalType": "address",
          "name": "previousOwner",
          "type": "address"
        },
        {
          "indexed": true,
          "internalType": "address",
          "name": "newOwner",
          "type": "address"
        }
      ],
      "name": "OwnershipTransferred",
      "type": "event"
    },
    {
      "inputs": [],
      "name": "bet",
      "outputs": [],
      "stateMutability": "nonpayable",
      "type": "function"
    },
    {
      "inputs": [],
      "name": "betFee",
      "outputs": [
        {
          "internalType": "uint256",
          "name": "",
          "type": "uint256"
        }
      ],
      "stateMutability": "view",
      "type": "function"
    },
    {
      "inputs": [
        {
          "internalType": "uint256",
          "name": "times",
          "type": "uint256"
        }
      ],
      "name": "betMany",
      "outputs": [],
      "stateMutability": "nonpayable",
      "type": "function"
    },
    {
      "inputs": [],
      "name": "betPrice",
      "outputs": [
        {
          "internalType": "uint256",
          "name": "",
          "type": "uint256"
        }
      ],
      "stateMutability": "view",
      "type": "function"
    },
    {
      "inputs": [],
      "name": "betsClosingTime",
      "outputs": [
        {
          "internalType": "uint256",
          "name": "",
          "type": "uint256"
        }
      ],
      "stateMutability": "view",
      "type": "function"
    },
    {
      "inputs": [],
      "name": "betsOpen",
      "outputs": [
        {
          "internalType": "bool",
          "name": "",
          "type": "bool"
        }
      ],
      "stateMutability": "view",
      "type": "function"
    },
    {
      "inputs": [],
      "name": "closeLottery",
      "outputs": [],
      "stateMutability": "nonpayable",
      "type": "function"
    },
    {
      "inputs": [],
      "name": "getRandomNumber",
      "outputs": [
        {
          "internalType": "uint256",
          "name": "randomNumber",
          "type": "uint256"
        }
      ],
      "stateMutability": "view",
      "type": "function"
    },
    {
      "inputs": [
        {
          "internalType": "uint256",
          "name": "closingTime",
          "type": "uint256"
        }
      ],
      "name": "openBets",
      "outputs": [],
      "stateMutability": "nonpayable",
      "type": "function"
    },
    {
      "inputs": [],
      "name": "owner",
      "outputs": [
        {
          "internalType": "address",
          "name": "",
          "type": "address"
        }
      ],
      "stateMutability": "view",
      "type": "function"
    },
    {
      "inputs": [],
      "name": "ownerPool",
      "outputs": [
        {
          "internalType": "uint256",
          "name": "",
          "type": "uint256"
        }
      ],
      "stateMutability": "view",
      "type": "function"
    },
    {
      "inputs": [
        {
          "internalType": "uint256",
          "name": "amount",
          "type": "uint256"
        }
      ],
      "name": "ownerWithdraw",
      "outputs": [],
      "stateMutability": "nonpayable",
      "type": "function"
    },
    {
      "inputs": [],
      "name": "paymentToken",
      "outputs": [
        {
          "internalType": "contract LotteryToken",
          "name": "",
          "type": "address"
        }
      ],
      "stateMutability": "view",
      "type": "function"
    },
    {
      "inputs": [
        {
          "internalType": "address",
          "name": "",
          "type": "address"
        }
      ],
      "name": "prize",
      "outputs": [
        {
          "internalType": "uint256",
          "name": "",
          "type": "uint256"
        }
      ],
      "stateMutability": "view",
      "type": "function"
    },
    {
      "inputs": [],
      "name": "prizePool",
      "outputs": [
        {
          "internalType": "uint256",
          "name": "",
          "type": "uint256"
        }
      ],
      "stateMutability": "view",
      "type": "function"
    },
    {
      "inputs": [
        {
          "internalType": "uint256",
          "name": "amount",
          "type": "uint256"
        }
      ],
      "name": "prizeWithdraw",
      "outputs": [],
      "stateMutability": "nonpayable",
      "type": "function"
    },
    {
      "inputs": [],
      "name": "purchaseRatio",
      "outputs": [
        {
          "internalType": "uint256",
          "name": "",
          "type": "uint256"
        }
      ],
      "stateMutability": "view",
      "type": "function"
    },
    {
      "inputs": [],
      "name": "purchaseTokens",
      "outputs": [],
      "stateMutability": "payable",
      "type": "function"
    },
    {
      "inputs": [],
      "name": "renounceOwnership",
      "outputs": [],
      "stateMutability": "nonpayable",
      "type": "function"
    },
    {
      "inputs": [
        {
          "internalType": "uint256",
          "name": "amount",
          "type": "uint256"
        }
      ],
      "name": "returnTokens",
      "outputs": [],
      "stateMutability": "nonpayable",
      "type": "function"
    },
    {
      "inputs": [
        {
          "internalType": "address",
          "name": "newOwner",
          "type": "address"
        }
      ],
      "name": "transferOwnership",
      "outputs": [],
      "stateMutability": "nonpayable",
      "type": "function"
    }
  ],
  "bytecode": "0x60806040523480156200001157600080fd5b506040516200246c3803806200246c8339810160408190526200003491620001e7565b6200003f33620000af565b84846040516200004f90620000ff565b6200005c9291906200029a565b604051809103906000f08015801562000079573d6000803e3d6000fd5b50600180546001600160a01b0319166001600160a01b039290921691909117905560029290925560035560045550620002cc9050565b600080546001600160a01b038381166001600160a01b0319831681178455604051919092169283917f8be0079c531659141344cd1fd0a4f28419497f9722a3daafe3b4186f6b6457e09190a35050565b6115198062000f5383390190565b634e487b7160e01b600052604160045260246000fd5b60005b838110156200014057818101518382015260200162000126565b8381111562000150576000848401525b50505050565b600082601f8301126200016857600080fd5b81516001600160401b03808211156200018557620001856200010d565b604051601f8301601f19908116603f01168101908282118183101715620001b057620001b06200010d565b81604052838152866020858801011115620001ca57600080fd5b620001dd84602083016020890162000123565b9695505050505050565b600080600080600060a086880312156200020057600080fd5b85516001600160401b03808211156200021857600080fd5b6200022689838a0162000156565b965060208801519150808211156200023d57600080fd5b506200024c8882890162000156565b60408801516060890151608090990151979a919950979695509350505050565b600081518084526200028681602086016020860162000123565b601f01601f19169290920160200192915050565b604081526000620002af60408301856200026c565b8281036020840152620002c381856200026c565b95945050505050565b610c7780620002dc6000396000f3fe60806040526004361061012a5760003560e01c8063719ce73e116100ab57806395cadc471161006f57806395cadc47146102e6578063990a49f5146102fc578063cfd8a1751461031c578063d1b258ff14610332578063dbdff2c11461035c578063f2fde38b1461036f57600080fd5b8063719ce73e1461024f578063729e91e914610265578063841e6ce9146102855780638adf9c1f1461029b5780638da5cb5b146102c857600080fd5b806333f707d1116100f257806333f707d1146101c55780633ae1786f146101e55780633cc121e6146102055780636fd0981614610225578063715018a61461023a57600080fd5b806311610c251461012f57806318c34965146101465780632b65e0401461016f5780633013ce29146101855780633290ce29146101bd575b600080fd5b34801561013b57600080fd5b5061014461038f565b005b34801561015257600080fd5b5061015c60085481565b6040519081526020015b60405180910390f35b34801561017b57600080fd5b5061015c60065481565b34801561019157600080fd5b506001546101a5906001600160a01b031681565b6040516001600160a01b039091168152602001610166565b610144610513565b3480156101d157600080fd5b506101446101e0366004610b07565b610597565b3480156101f157600080fd5b50610144610200366004610b07565b610690565b34801561021157600080fd5b50610144610220366004610b07565b61072f565b34801561023157600080fd5b506101446107a0565b34801561024657600080fd5b506101446108bb565b34801561025b57600080fd5b5061015c60055481565b34801561027157600080fd5b50610144610280366004610b07565b6108cf565b34801561029157600080fd5b5061015c60045481565b3480156102a757600080fd5b5061015c6102b6366004610b20565b60096020526000908152604090205481565b3480156102d457600080fd5b506000546001600160a01b03166101a5565b3480156102f257600080fd5b5061015c60025481565b34801561030857600080fd5b50610144610317366004610b07565b6108fc565b34801561032857600080fd5b5061015c60035481565b34801561033e57600080fd5b5060075461034c9060ff1681565b6040519015158152602001610166565b34801561036857600080fd5b504461015c565b34801561037b57600080fd5b5061014461038a366004610b20565b6109b5565b60075460ff1680156103a2575060085442105b6103e75760405162461bcd60e51b8152602060048201526011602482015270131bdd1d195c9e481a5cc818db1bdcd959607a1b60448201526064015b60405180910390fd5b600454600660008282546103fb9190610b66565b909155505060035460058054600090610415908490610b66565b9091555050600a8054600181810183556000929092527fc65a7bb8d6351c1cf70c95a316cc6a92839c986682d98bc35f958f4883f9d2a80180546001600160a01b0319163390811790915590546004546003546001600160a01b0392909216926323b872dd92909130916104899190610b66565b6040516001600160e01b031960e086901b1681526001600160a01b0393841660048201529290911660248301526044820152606401602060405180830381600087803b1580156104d857600080fd5b505af11580156104ec573d6000803e3d6000fd5b505050506040513d601f19601f820116820180604052508101906105109190610b7e565b50565b6001546002546001600160a01b03909116906340c10f199033906105379034610ba0565b6040516001600160e01b031960e085901b1681526001600160a01b0390921660048301526024820152604401600060405180830381600087803b15801561057d57600080fd5b505af1158015610591573d6000803e3d6000fd5b50505050565b61059f610a2b565b6006548111156105f15760405162461bcd60e51b815260206004820152601960248201527f4e6f7420656e6f756768206665657320636f6c6c65637465640000000000000060448201526064016103de565b80600660008282546106039190610bbf565b909155505060015460405163a9059cbb60e01b8152336004820152602481018390526001600160a01b039091169063a9059cbb90604401602060405180830381600087803b15801561065457600080fd5b505af1158015610668573d6000803e3d6000fd5b505050506040513d601f19601f8201168201806040525081019061068c9190610b7e565b5050565b60015460405163079cc67960e41b8152336004820152602481018390526001600160a01b03909116906379cc679090604401600060405180830381600087803b1580156106dc57600080fd5b505af11580156106f0573d6000803e3d6000fd5b50506002543392506108fc91506107079084610bec565b6040518115909202916000818181858888f1935050505015801561068c573d6000803e3d6000fd5b336000908152600960205260409020548111156107815760405162461bcd60e51b815260206004820152601060248201526f4e6f7420656e6f756768207072697a6560801b60448201526064016103de565b3360009081526009602052604081208054839290610603908490610bbf565b6008544210156107e65760405162461bcd60e51b8152602060048201526011602482015270546f6f20736f6f6e20746f20636c6f736560781b60448201526064016103de565b60075460ff166108295760405162461bcd60e51b815260206004820152600e60248201526d105b1c9958591e4818db1bdcd95960921b60448201526064016103de565b600a54156108af57600a546000906108419044610c00565b90506000600a828154811061085857610858610c14565b60009182526020808320909101546005546001600160a01b03909116808452600990925260408320805492945090929091610894908490610b66565b9091555050600060058190556108ac90600a90610ad5565b50505b6007805460ff19169055565b6108c3610a2b565b6108cd6000610a85565b565b600081116108dc57600080fd5b8015610510576108ea61038f565b806108f481610c2a565b9150506108dc565b610904610a2b565b60075460ff16156109495760405162461bcd60e51b815260206004820152600f60248201526e2637ba3a32b93c9034b99037b832b760891b60448201526064016103de565b4281116109a35760405162461bcd60e51b815260206004820152602260248201527f436c6f73696e672074696d65206d75737420626520696e207468652066757475604482015261726560f01b60648201526084016103de565b6008556007805460ff19166001179055565b6109bd610a2b565b6001600160a01b038116610a225760405162461bcd60e51b815260206004820152602660248201527f4f776e61626c653a206e6577206f776e657220697320746865207a65726f206160448201526564647265737360d01b60648201526084016103de565b61051081610a85565b6000546001600160a01b031633146108cd5760405162461bcd60e51b815260206004820181905260248201527f4f776e61626c653a2063616c6c6572206973206e6f7420746865206f776e657260448201526064016103de565b600080546001600160a01b038381166001600160a01b0319831681178455604051919092169283917f8be0079c531659141344cd1fd0a4f28419497f9722a3daafe3b4186f6b6457e09190a35050565b508054600082559060005260206000209081019061051091905b80821115610b035760008155600101610aef565b5090565b600060208284031215610b1957600080fd5b5035919050565b600060208284031215610b3257600080fd5b81356001600160a01b0381168114610b4957600080fd5b9392505050565b634e487b7160e01b600052601160045260246000fd5b60008219821115610b7957610b79610b50565b500190565b600060208284031215610b9057600080fd5b81518015158114610b4957600080fd5b6000816000190483118215151615610bba57610bba610b50565b500290565b600082821015610bd157610bd1610b50565b500390565b634e487b7160e01b600052601260045260246000fd5b600082610bfb57610bfb610bd6565b500490565b600082610c0f57610c0f610bd6565b500690565b634e487b7160e01b600052603260045260246000fd5b600081610c3957610c39610b50565b50600019019056fea264697066735822122094b1a5de9e2916bcc3275ecae2af49fa07613f4cb2a24e46dfa352c388844fe864736f6c6343000809003360806040523480156200001157600080fd5b5060405162001519380380620015198339810160408190526200003491620002c1565b8151829082906200004d9060039060208501906200014e565b508051620000639060049060208401906200014e565b506200007591506000905033620000a9565b620000a17f9f2df0fed2c77648de5860a4cc508cd0818c85b8b8a1ab4ceeef8d981c8956a633620000a9565b505062000368565b60008281526005602090815260408083206001600160a01b038516845290915290205460ff166200014a5760008281526005602090815260408083206001600160a01b03851684529091529020805460ff19166001179055620001093390565b6001600160a01b0316816001600160a01b0316837f2f8788117e7eff1d82e926ec794901d17c78024a50270940304540a733656f0d60405160405180910390a45b5050565b8280546200015c906200032b565b90600052602060002090601f016020900481019282620001805760008555620001cb565b82601f106200019b57805160ff1916838001178555620001cb565b82800160010185558215620001cb579182015b82811115620001cb578251825591602001919060010190620001ae565b50620001d9929150620001dd565b5090565b5b80821115620001d95760008155600101620001de565b634e487b7160e01b600052604160045260246000fd5b600082601f8301126200021c57600080fd5b81516001600160401b0380821115620002395762000239620001f4565b604051601f8301601f19908116603f01168101908282118183101715620002645762000264620001f4565b816040528381526020925086838588010111156200028157600080fd5b600091505b83821015620002a5578582018301518183018401529082019062000286565b83821115620002b75760008385830101525b9695505050505050565b60008060408385031215620002d557600080fd5b82516001600160401b0380821115620002ed57600080fd5b620002fb868387016200020a565b935060208501519150808211156200031257600080fd5b5062000321858286016200020a565b9150509250929050565b600181811c908216806200034057607f821691505b602082108114156200036257634e487b7160e01b600052602260045260246000fd5b50919050565b6111a180620003786000396000f3fe608060405234801561001057600080fd5b50600436106101425760003560e01c806342966c68116100b8578063a217fddf1161007c578063a217fddf146102a6578063a457c2d7146102ae578063a9059cbb146102c1578063d5391393146102d4578063d547741f146102fb578063dd62ed3e1461030e57600080fd5b806342966c681461023c57806370a082311461024f57806379cc67901461027857806391d148541461028b57806395d89b411461029e57600080fd5b8063248a9ca31161010a578063248a9ca3146101bc5780632f2ff15d146101df578063313ce567146101f457806336568abe14610203578063395093511461021657806340c10f191461022957600080fd5b806301ffc9a71461014757806306fdde031461016f578063095ea7b31461018457806318160ddd1461019757806323b872dd146101a9575b600080fd5b61015a610155366004610e96565b610321565b60405190151581526020015b60405180910390f35b610177610358565b6040516101669190610eec565b61015a610192366004610f3b565b6103ea565b6002545b604051908152602001610166565b61015a6101b7366004610f65565b610402565b61019b6101ca366004610fa1565b60009081526005602052604090206001015490565b6101f26101ed366004610fba565b610426565b005b60405160128152602001610166565b6101f2610211366004610fba565b610450565b61015a610224366004610f3b565b6104d3565b6101f2610237366004610f3b565b6104f5565b6101f261024a366004610fa1565b610529565b61019b61025d366004610fe6565b6001600160a01b031660009081526020819052604090205490565b6101f2610286366004610f3b565b610536565b61015a610299366004610fba565b61054b565b610177610576565b61019b600081565b61015a6102bc366004610f3b565b610585565b61015a6102cf366004610f3b565b610600565b61019b7f9f2df0fed2c77648de5860a4cc508cd0818c85b8b8a1ab4ceeef8d981c8956a681565b6101f2610309366004610fba565b61060e565b61019b61031c366004611001565b610633565b60006001600160e01b03198216637965db0b60e01b148061035257506301ffc9a760e01b6001600160e01b03198316145b92915050565b6060600380546103679061102b565b80601f01602080910402602001604051908101604052809291908181526020018280546103939061102b565b80156103e05780601f106103b5576101008083540402835291602001916103e0565b820191906000526020600020905b8154815290600101906020018083116103c357829003601f168201915b5050505050905090565b6000336103f881858561065e565b5060019392505050565b600033610410858285610782565b61041b8585856107fc565b506001949350505050565b600082815260056020526040902060010154610441816109a0565b61044b83836109aa565b505050565b6001600160a01b03811633146104c55760405162461bcd60e51b815260206004820152602f60248201527f416363657373436f6e74726f6c3a2063616e206f6e6c792072656e6f756e636560448201526e103937b632b9903337b91039b2b63360891b60648201526084015b60405180910390fd5b6104cf8282610a30565b5050565b6000336103f88185856104e68383610633565b6104f0919061107c565b61065e565b7f9f2df0fed2c77648de5860a4cc508cd0818c85b8b8a1ab4ceeef8d981c8956a661051f816109a0565b61044b8383610a97565b6105333382610b56565b50565b610541823383610782565b6104cf8282610b56565b60009182526005602090815260408084206001600160a01b0393909316845291905290205460ff1690565b6060600480546103679061102b565b600033816105938286610633565b9050838110156105f35760405162461bcd60e51b815260206004820152602560248201527f45524332303a2064656372656173656420616c6c6f77616e63652062656c6f77604482015264207a65726f60d81b60648201526084016104bc565b61041b828686840361065e565b6000336103f88185856107fc565b600082815260056020526040902060010154610629816109a0565b61044b8383610a30565b6001600160a01b03918216600090815260016020908152604080832093909416825291909152205490565b6001600160a01b0383166106c05760405162461bcd60e51b8152602060048201526024808201527f45524332303a20617070726f76652066726f6d20746865207a65726f206164646044820152637265737360e01b60648201526084016104bc565b6001600160a01b0382166107215760405162461bcd60e51b815260206004820152602260248201527f45524332303a20617070726f766520746f20746865207a65726f206164647265604482015261737360f01b60648201526084016104bc565b6001600160a01b0383811660008181526001602090815260408083209487168084529482529182902085905590518481527f8c5be1e5ebec7d5bd14f71427d1e84f3dd0314c0f7b2291e5b200ac8c7c3b925910160405180910390a3505050565b600061078e8484610633565b905060001981146107f657818110156107e95760405162461bcd60e51b815260206004820152601d60248201527f45524332303a20696e73756666696369656e7420616c6c6f77616e636500000060448201526064016104bc565b6107f6848484840361065e565b50505050565b6001600160a01b0383166108605760405162461bcd60e51b815260206004820152602560248201527f45524332303a207472616e736665722066726f6d20746865207a65726f206164604482015264647265737360d81b60648201526084016104bc565b6001600160a01b0382166108c25760405162461bcd60e51b815260206004820152602360248201527f45524332303a207472616e7366657220746f20746865207a65726f206164647260448201526265737360e81b60648201526084016104bc565b6001600160a01b0383166000908152602081905260409020548181101561093a5760405162461bcd60e51b815260206004820152602660248201527f45524332303a207472616e7366657220616d6f756e7420657863656564732062604482015265616c616e636560d01b60648201526084016104bc565b6001600160a01b03848116600081815260208181526040808320878703905593871680835291849020805487019055925185815290927fddf252ad1be2c89b69c2b068fc378daa952ba7f163c4a11628f55a4df523b3ef910160405180910390a36107f6565b6105338133610c88565b6109b4828261054b565b6104cf5760008281526005602090815260408083206001600160a01b03851684529091529020805460ff191660011790556109ec3390565b6001600160a01b0316816001600160a01b0316837f2f8788117e7eff1d82e926ec794901d17c78024a50270940304540a733656f0d60405160405180910390a45050565b610a3a828261054b565b156104cf5760008281526005602090815260408083206001600160a01b0385168085529252808320805460ff1916905551339285917ff6391f5c32d9c69d2a47ea670b442974b53935d1edc7fd64eb21e047a839171b9190a45050565b6001600160a01b038216610aed5760405162461bcd60e51b815260206004820152601f60248201527f45524332303a206d696e7420746f20746865207a65726f20616464726573730060448201526064016104bc565b8060026000828254610aff919061107c565b90915550506001600160a01b038216600081815260208181526040808320805486019055518481527fddf252ad1be2c89b69c2b068fc378daa952ba7f163c4a11628f55a4df523b3ef910160405180910390a35050565b6001600160a01b038216610bb65760405162461bcd60e51b815260206004820152602160248201527f45524332303a206275726e2066726f6d20746865207a65726f206164647265736044820152607360f81b60648201526084016104bc565b6001600160a01b03821660009081526020819052604090205481811015610c2a5760405162461bcd60e51b815260206004820152602260248201527f45524332303a206275726e20616d6f756e7420657863656564732062616c616e604482015261636560f01b60648201526084016104bc565b6001600160a01b0383166000818152602081815260408083208686039055600280548790039055518581529192917fddf252ad1be2c89b69c2b068fc378daa952ba7f163c4a11628f55a4df523b3ef910160405180910390a3505050565b610c92828261054b565b6104cf57610c9f81610ce1565b610caa836020610cf3565b604051602001610cbb929190611094565b60408051601f198184030181529082905262461bcd60e51b82526104bc91600401610eec565b60606103526001600160a01b03831660145b60606000610d02836002611109565b610d0d90600261107c565b67ffffffffffffffff811115610d2557610d25611128565b6040519080825280601f01601f191660200182016040528015610d4f576020820181803683370190505b509050600360fc1b81600081518110610d6a57610d6a61113e565b60200101906001600160f81b031916908160001a905350600f60fb1b81600181518110610d9957610d9961113e565b60200101906001600160f81b031916908160001a9053506000610dbd846002611109565b610dc890600161107c565b90505b6001811115610e40576f181899199a1a9b1b9c1cb0b131b232b360811b85600f1660108110610dfc57610dfc61113e565b1a60f81b828281518110610e1257610e1261113e565b60200101906001600160f81b031916908160001a90535060049490941c93610e3981611154565b9050610dcb565b508315610e8f5760405162461bcd60e51b815260206004820181905260248201527f537472696e67733a20686578206c656e67746820696e73756666696369656e7460448201526064016104bc565b9392505050565b600060208284031215610ea857600080fd5b81356001600160e01b031981168114610e8f57600080fd5b60005b83811015610edb578181015183820152602001610ec3565b838111156107f65750506000910152565b6020815260008251806020840152610f0b816040850160208701610ec0565b601f01601f19169190910160400192915050565b80356001600160a01b0381168114610f3657600080fd5b919050565b60008060408385031215610f4e57600080fd5b610f5783610f1f565b946020939093013593505050565b600080600060608486031215610f7a57600080fd5b610f8384610f1f565b9250610f9160208501610f1f565b9150604084013590509250925092565b600060208284031215610fb357600080fd5b5035919050565b60008060408385031215610fcd57600080fd5b82359150610fdd60208401610f1f565b90509250929050565b600060208284031215610ff857600080fd5b610e8f82610f1f565b6000806040838503121561101457600080fd5b61101d83610f1f565b9150610fdd60208401610f1f565b600181811c9082168061103f57607f821691505b6020821081141561106057634e487b7160e01b600052602260045260246000fd5b50919050565b634e487b7160e01b600052601160045260246000fd5b6000821982111561108f5761108f611066565b500190565b7f416363657373436f6e74726f6c3a206163636f756e74200000000000000000008152600083516110cc816017850160208801610ec0565b7001034b99036b4b9b9b4b733903937b6329607d1b60179184019182015283516110fd816028840160208801610ec0565b01602801949350505050565b600081600019048311821515161561112357611123611066565b500290565b634e487b7160e01b600052604160045260246000fd5b634e487b7160e01b600052603260045260246000fd5b60008161116357611163611066565b50600019019056fea26469706673582212200731472859e7f3ac6ed3da609088f5bf32f09e1aa1a1f8bf6b9222b37f5d64e064736f6c63430008090033",
  "linkReferences": {},
  "deployedLinkReferences": {}
}